:100000000011002095070000A341000081070000B7
:100010008107000081070000810700000000000048
:100020000000000000000000000000008508000043
:100030008107000000000000210800008107000087
:10004000090A0000090A0000090A0000090A000064
:10005000090A0000090A0000090A0000090A000054
:10006000090A0000090A0000090A0000090A000044
:10007000090A0000090A0000090A0000090A000034
:10008000090A0000090A0000090A0000090A000024
:10009000090A0000090A0000090A0000090A000014
:1000A000090A0000090A0000090A0000090A000004
:0800B000090A0000090A000022
:1000B80010B51F4804F01FFB002836D01D4803F078
:1000C800A8FE002831DB1B48002103F0BCFE1848BD
:1000D80004F011FB48B3184803F09BFE002824DB0A
:1000E8001548002103F0AFFE144804F004FB48B99A
:1000F800134803F063FF01210E4803F0A4FE4FF0FC
:10010800FF3010BD0F4800F01FF8012104460028F9
:10011800F2D1094803F097FE00214FF4803003F034
:100128000FFA0548214603F08EFE0020E9E700BFDC
:10013800544A0000804B0000784B0000684A0000D9
:100148009C4C0000884B000013B50446002140F287
:100158001F5003F0F5F900210DF10702204603F0C6
:1001680086FE9DF8071060B901290AD175210DF1A5
:100178000702204603F07BFE9DF8071038B11B48A4
:1001880000E01B4803F01AFF012002B010BD6729E8
:10019800F5D127222121204603F08AFE0028F3D139
:1001A80003222321204603F083FE0028ECD12722D6
:1001B8002121204603F07CFE0028E5D103222421DA
:1001C800204603F075FE0028DED1C82004F08EFA20
:1001D80020460F221F2103F06BFE04460028D3D1CE
:1001E800C82004F083FA2046CFE700BFD54C0000B2
:1001F800BA4C0000014B1B68184700BF00000020E4
:1002080030B585B004460D4610220021684604F03A
:1002180089FB02238DF802302A46044B01932146BC
:10022800684603F099FB05B030BD00BFFD01000032
:1002380080B505460E461746984603F09FF90346D3
:1002480004F0DCFBDFF81890044649F80030424619
:1002580030463946A84754F8090000F0AFFA00BF05
:10026800080000002DE9F047058B04462807904652
:1002780011D4022905F0070540F0CC80204603F090
:10028800AAFE78B10138218B042811D8DFE800F0E4
:10029800C2106D85950001290CBF45F0100545F089
:1002A8002005258388F31188BFF36F8FBDE8F08799
:1002B80001F0070AAA4500F0A5800027B9463E4686
:1002C800A368002B00F0BC8041F00801218388F36B
:1002D8001188BFF36F8FA168002900F0BA800D68FC
:1002E800002900F0B680D1F80480334652462046F3
:1002F800C047002D76D02B6829461D46F0E701F04F
:1003080007035A1F012A1BD8002221F00701062BD8
:10031800276889B2C4E9002209D13B4603E0628B11
:10032800013262831B68002BF9D141F0020121835D
:10033800204603F050FE00287AD041F0200176E0F4
:10034800042B0AD121F0070189B22183204603F04A
:1003580042FE10B141F020012183218B01F0070AF0
:10036800AA454FD00027B946AAE7236921F007011B
:1003780041F00601062DD3F8009021832DD1B9F163
:10038800000F3FD041F00801218388F31188BFF3A3
:100398006F8F3A492046C84729E021F007012369B1
:1003A80041F0040189B2042DD3F804902183E6D0EA
:1003B80000273E464FF0040A82E721F0070123692F
:1003C80041F0050189B2052DD3F808902183D6D0D4
:1003D80000273E464FF0050A72E700273E464FF0D9
:1003E800060A6DE72B4687E7B9F1000FD1D1EFF385
:1003F8001188202383F31288BFF36F8F238B23F098
:1004080008032383258BEA062ED525F010032383C2
:1004180005F007056669218B002EBFF670AF002333
:100428002768C4E9003321F0070141F00101218365
:10043800218B01F0070AAA454FF000097FF440AF6D
:10044800002F9CD041F00801218388F31188BFF365
:100458006F8F002FC8D03D68394633465246204634
:1004680003F0E5FD2F46F4E7AB067FF51BAF25F05B
:100478002003238305F0070500E700BF6340000061
:10048800014B036000207047904B000030BFFFF71E
:10049800FDBF00BF2DE9F0410B4EDFF8308006EBC1
:1004A8000807CC1B054632460949204604F02CFAB9
:1004B800A01942460021083C04F034FA2C6707F1E1
:1004C8000800BDE8F08100BF000000000400000043
:1004D8006C4B0000074A936893F90E10002907DB5C
:1004E800526993421FBF044A536843F080535360D4
:1004F800704700BF4003002000ED00E070B5204BBE
:1005080015469A6A12F0100F9A6A14BF1124102423
:1005180012F0080F9A6A18BF1224920706460AD5E5
:10052800586B9A6A140628D519B19A6A22F0800283
:100538009A62132401E06FF01500114B9A6A12F0C9
:10054800010F9A6A18BF1424D10602D49B6A9A072D
:100558000AD50B4B5B681B0506D5314600F006FA39
:1005680010B180F309880224054A936A43F0FF0317
:10057800936200232B70204670BD6FF01500D8E7FA
:1005880000ED00E0134B9A6A12F0007F9A6A14BFDC
:100598001E201D2012F0807F9A6A18BF1F2012F4B7
:1005A800002F9A6A18BF212012F4802F9A6A18BF68
:1005B800222012F4003F9A6A18BF232012F4803FC9
:1005C8009A6A6FEA02426FEA12429A6218BF2420BE
:1005D800704700BF00ED00E010B5164B9A6A9C6AA0
:1005E80012F4805F14BF1722162214F4006F9C6A5D
:1005F80018BF1822A40509D59A6B9A6A120404D563
:1006080018B19A6A22F400429A621922094B986A30
:1006180010F4806F986A18BF1A2210F4807F986AC5
:1006280040F47F4098624FF000030B700CBF1046F7
:100638001B2010BD00ED00E0F0B5484B5B688BB0A7
:100648000446C3F30803002585F31188BFF36F8FB1
:1006580002F07F40B0F17F4F11D102F00C00082862
:100668000DD010074CBF0C4601250022033B8DF826
:100678000720032B05D8DFE803F0246367602C46C6
:10068800F3E700239DF80720CAB902AE04F120075A
:1006980020686168324603C20834BC421646F7D166
:1006A800099A002D54D0C2F3080121B96FEA5222E9
:1006B8006FEA4222099202A9184603F064FD0BB0C2
:1006C800F0BD264BDA6A9107DBD4DA6A002AD8DB58
:1006D800DA6A5200D5D55A69A16942F480725A6122
:1006E800BFF34F8FBFF36F8F5A6931F8021C22F4A2
:1006F80080725A61BFF34F8FBFF36F8F4DF602724E
:1007080091420AD09A6AD2B24AB10DF10702012188
:100718002046FFF7F3FE0346B4E72368B2E79A6A78
:1007280012F47F4F05D00DF107010120FFF754FFA8
:10073800F1E79B6AB3F5803FA3D3FFF723FFEAE70E
:100748000DF107020021E3E70DF107010020EDE7B5
:1007580022F4FF7222F00102ACE700BF00ED00E0D6
:10076800044B5A6942F010025A615A6922F0080291
:100778005A61704700ED00E0EFF30880EFF309815C
:1007880001B57246FFF758FF01BD00BF01F064F9DB
:10079800202080F3118808484FF40461401880F342
:1007A8000988EFF314800221084380F31488BFF30B
:1007B8006F8F00F0A9F8000080030020084B9B68A9
:1007C80083420BD1EFF3058343B1064B5A6842F0DD
:1007D80080525A605A6A22F400425A6204F059B8A8
:1007E8004003002000ED00E0094A93686FF00A0119
:1007F8009967084958674B6843F080534B6000235A
:1008080083F31188BFF36F8F9368986F704700BFA9
:100818004003002000ED00E015498A684FF03000E1
:100828001044EFF3098C80E8F01F202080F3128831
:10083800BFF36F8F0F4F4FF000664A698A603E60C2
:100848004FF07004141920680B4C2060506F00237F
:10085800536780F3118804B5104600F0EFF8BDE83F
:10086800044002F1300090E8F01F8CF309887047CB
:100878004003002004ED00E0600200201EF0040F99
:100888000CBFEFF30880EFF30980816911F8021CAF
:100898000229FFD001B5724603F07BFC01BD00BF01
:1008A80040B2002807DB044A4109012300F01F0079
:1008B800834042F82130704700E100E0054B4209CF
:1008C80000F01F0053F82220012303FA00F0104023
:1008D800704700BF00E100E040B20028A8BF00F167
:1008E800604001F10101B8BF064B4FEA4111ACBFAE
:1008F80000F5614000F00F00C9B2B4BF195480F888
:100908000013704714ED00E008B5084B084A23F0BF
:100918007F039360BFF34F8FBFF36F8F02F030FAFE
:1009280002F0B8FE00F060F802F06EFA0000000075
:1009380000ED00E042F8203C009B42F81C3C0A49CC
:10094800019B42F8183C029B42F8143C21F001013B
:100958004FF0807342F8043C42F8081C0023203A08
:1009680002654367704700BF39020000094A034621
:10097800906870B113F1160F006E05D0A0F1400217
:100988009A4205D8834203D2814228BF002070478B
:10099800002070474003002008B515460B4A0C4B51
:1009A8009060026F1A600E4600F048F82C4686F3F5
:1009B80009884FF00000074B984720464FF0000188
:1009C8004FF000024FF00003034C20474003002083
:1009D80060020020B941000039020000014B1022DA
:1009E8001A61704700ED00E0044800232021C21876
:1009F80001331E2B82F80013F9D1704700E100E0A3
:100A080008B5EFF30583064A103B02EBC30152F821
:100A1800330049688847BDE80840FFF75BBD00BF61
:100A28007C4A0000024B034A0348012100F076B8D3
:100A38000060002000000020904B0000026E054B73
:100A4800403A1A60044A4021C3E9011218460121BC
:100A580000F06EB86402002000000B15084AC2F8C6
:100A680098000B6823F01F03034343F01003C2F8F8
:100A78009C308B6843F00103C2F8A030704700BF78
:100A880000ED00E02DE9F043DFF8608085B00E4608
:100A98001F4604464FF00009B14523DA6068D8B113
:100AA8003FB1411E08421BD11F2819D9236819429A
:100AB80016D12368019303F09EFBA36803430393B5
:100AC800D8F89050C5F30725D0B2013DA84207D801
:100AD80001A9FFF7C3FF421C09F101090C34DBE748
:100AE8006FF01502104605B0BDE8F08300ED00E098
:100AF800044B0522C3F89420BFF34F8FBFF36F8FC9
:100B0800704700BF00ED00E0BFF35F8F024B00228B
:100B1800C3F89420704700BF00ED00E010B5034C07
:100B280001232278FFF7AEFF207010BD700300206C
:100B380008B50B4A00231278FFF7A4FF10F1160F2F
:100B480007D0084A0021D2F89030C3F3072398420F
:100B580000DB08BDC2F89800C2F8A0100130F2E727
:100B68007003002000ED00E02DE9F043534B544C96
:100B7800D3F890302568C3F307239D4285B000F26F
:100B88009A80FFF7C1FF00200C2685421AD14D4CF0
:100B98004D4F25706846FFF773FCDFF82081DFF8BA
:100BA8002C9106460025AE4213D1237843490020F4
:100BB800D1F89020C2F30722934276DBFFF798FF23
:100BC800002042E0616806FB0011FFF747FF013093
:100BD800DBE7009800EB05114FEA051CCB683B40AA
:100BE800B3F5000F48D00AD8B3F5001F30D0B3F5DD
:100BF800800F36D0B3F5801F10D00135D3E7B3F19D
:100C0800807F42D0B3F1007FF7D150F80C3088686C
:100C18004A6803F0F0FA40F4802009E050F80C30FC
:100C280088684A6803F0E7FA40F0885040F43020BA
:100C3800CDE901230390D8F890302078C3F3072337
:100C4800013B98422AD96FF0150005B0BDE8F08342
:100C580050F80C3088684A6803F0CDFA40EA090079
:100C6800E6E750F80C3088684A6803F0C4FA40F0A8
:100C7800E06040F40030DBE750F80C3088684A68E0
:100C880003F0B9FA40F08270D2E750F80C30886867
:100C98004A6803F0B0FA40F08870C9E701A9FFF785
:100CA800DDFE237801332370A7E7C1F89830C1F837
:100CB800A00001337CE74FF0FF30C6E700ED00E00D
:100CC8009C4B0000700300200000F0FF000008119A
:100CD80008B50649064821F00701C1F1005202F59E
:100CE800C04203F02CF9002008BD00BF47110020C6
:100CF8007002002020B1034B800143F00103184724
:100D0800704700BF704B0000084B70B5C31A0D4602
:100D180007499B10044659430648402203F08BFAC2
:100D28002B4601462046BDE8704018479002002037
:100D3800B76DDBB6404A000073B50C4C0C4A402333
:100D4800041B00930D460B460A49A410614306464E
:100D5800094803F09CFA011E05DA30462B4602B01A
:100D6800BDE87040184702B070BD00BF9002002077
:100D780001430000B76DDBB6404A000010B5EFF341
:100D88001184202383F31288BFF36F8F074A1368F7
:100D980023F00201DB07116002D4012003F081FB7C
:100DA80084F31188BFF36F8F10BD00BFE0020020ED
:100DB800002270B5012104461046FFF78DFD0F484B
:100DC80001F06CF80E4B984215D101F077F82669BE
:100DD8000C49304603F04EF900280BDB0125356439
:100DE8002469084904F11C0003F044F9002801DBD8
:100DF800E564002070BD6FF00400FBE7090F0000F8
:100E08000000AD0BBC4B00001FB500220123CDE94B
:100E18000223094ACDF800D06B46CDF804D003F080
:100E280064FA002805DB4FF480420023684602F08C
:100E38008BF805B05DF804FB1F43000030B4104B7D
:100E48000C2202FB003301460020D3E90E529863BE
:100E5800EFF31180202484F31288BFF36F8F1C6C8A
:100E680004F0C00444F002041C6480F31188BFF34A
:100E78006F8F1DB12B46034830BC184730BC7047F4
:100E880090020020404A000010B4EFF311822023A2
:100E980083F31288BFF36F8F1748016841F002048B
:100EA8000460C80707D482F31188BFF36F8F01204D
:100EB80010BC01F015B84FF08041D1F80C04D1F8FE
:100EC8000C14C907EFD5EFF3118083F31288BFF331
:100ED8006F8F0A490B6C03F0C00343F002030B64E5
:100EE80080F31188BFF36F8F82F31188BFF36F8F80
:100EF800002010BCFFF7A2BFE002002090020020F3
:100F080010B1012804D07047034B1B6C5B0701D15B
:100F1800FFF794BF704700BF900200202DE9F04111
:100F28003849BFF35B8F0746012251E8003F41E88B
:100F380000200028F9D1BFF35B8F33B93249334819
:100F48004B60CB608A6003F0A8F87B1E012B2BD87E
:100F5800012F07D14FF08043D3F81C3403F003036B
:100F6800012B21D003F005FC0546F8B9284B1B7866
:100F7800E3B14FF080430222C3F808230646DFF8A6
:100F880094804FF08044D4F81824D4F81834D2034D
:100F980015D503F00303012B01D0012F0FD155B351
:100FA80086F31188BFF36F8FBDE8F081EFF31186E8
:100FB800202383F31288BFF36F8F0125DFE7ADB1DC
:100FC800304603F009F9D4F81835002BDBD1D4F8F2
:100FD8000421002AD7D0C4F80431D4F804310123FD
:100FE800C4F81835C8F88031A360CCE70021212067
:100FF80002F0A6FAE7E74FF080430222C3F8042381
:10100800D2E700BF8C0200207C020020AC02002046
:101018007103002000E100E038B545682B69B3B1E1
:101028001035284601F026FA044680B901462846BC
:1010380001F0ECF9084B98420BD1084922462846A2
:1010480001F0CCF9224605210620FFF745FC0020D7
:1010580038BD6FF00400FBE70000AD0B691000001D
:10106800430970B507D10B4B596821B101250C68AC
:10107800094E854001B970BD8A682A4002D04B6884
:10108800304698471CB1236821461C46F2E72346A0
:10109800FAE700BFE4020020544A00002DE9F043BB
:1010A800476840F20636D0063B7B87B002EA060660
:1010B80054BFC2F34010032001F01F05B6F5837F2B
:1010C800144645EA43158DF8030043D00FD8062E81
:1010D80018D007D8B6B1022E3ED06FF0150007B071
:1010E800BDE8F083B6F5807FF7D101260AE040F22B
:1010F8000222964232D0B6F5407F31D0B6F5007F55
:10110800EBD102260123220303FA01F12AD57B68D9
:10111800C3F808153B695BBB05F01F026D0974D164
:10112800920002F1A04284F48031D2F80037C1F372
:101138000041C4F3404423F4E16344EA410423F04A
:1011480007031C4344EA800444EA0624C2F8004723
:101158000020C4E70726D5E70426D3E70526D1E70C
:101168000326CFE7630344BF7B68C3F80C15D1E7B8
:1011780010370DF102022946384601F035F914F40A
:10118800403F80460CD12946384603F0FCF9214BF4
:101198009845DDD19DF80210384601F075F9D7E77A
:1011A80001AB4FF0000903AA29463846CDE90439B6
:1011B800CDE90199CDF80C9000F0EAFF154B984263
:1011C8008BD114F4003315D09DF803308DF80E3010
:1011D80084F48034C4F300444B4603AA29463846B5
:1011E8008DF80C608DF80D4001F082F8094B98429B
:1011F800CDD072E7CDE9043303AA0DF103032946E4
:101208003846039300F0C4FFF0E702F5E07253F8A4
:101218002230FFDE0000AD0BF0B54068057B01F021
:101228001F0444EA4514056987B0002D60D0B2F563
:10123800001F00F1100506D12146284603F0A5F944
:10124800002007B0F0BD01AE0027B2F5800F01976E
:10125800776038D1B3F1007F14BF052304238DF8DC
:1012680004300023CDE904630393836823FA01F172
:1012780011F0010119D1B2F1A07F16D104F01F03BA
:10128800620903F5E07339D14FF0A04252F82330D8
:10129800DB070AD40DF1030632462146284601F041
:1012A800A3F8184B984219D0029603AA214628465B
:1012B80000F06EFF144B98421DD1012221462846AA
:1012C80001F0EEF8BCE7B3F1C06F05D0B3F1007FD1
:1012D80014BF01230223C2E70323C0E7314628468F
:1012E80001F0D8F8084B9842DED06FF00B00A8E761
:1012F8006FF08500A5E76FF01500A2E751F82330DD
:10130800FFDE00BF0400AD0B0000AD0B02780B69D7
:10131800012A08D0022A08D04AB9064A5A6203F1BB
:10132800140001F0DDBD044AF8E7044AF6E7044A70
:10133800F4E700BF0000AD0B0100AE0B0200AE0BDE
:101348000100AD0B2DE9F04FD0F81090D0F80480D3
:1013580085B005460C461746029309F1040A4FF07A
:10136800FF324FF0FF33504601F0EEFD09F1140B48
:1013780000230022584601F0E7FD404601F0FCFA40
:101388007B1E00260393B74201D8002322E0039B6B
:10139800217AB34283BF237D83F00403C3F3800320
:1013A80000230193029B0093D4E90023284600F010
:1013B8004DF8034670B94FF480420023584601F0B7
:1013C800C3FD98B1404601F0E7FA284600F02CF832
:1013D8006FF004034046029301F0DEFA504601F034
:1013E8007FFD029B184605B0BDE8F08FD9F8243080
:1013F800034A934204F10C04EAD10136C3E700BF63
:101408000000AD0B08B503464068826900F1080189
:1014180001F052FA034B984214BF6FF00F000020FE
:1014280008BD00BF0000AD0B08B543681B68D3F8C2
:101438000805D3F80C1501F0A5FB034B984214BF1F
:101448006FF00F00002008BD0000AD0B2DE9F04142
:1014580086B00C4647689DF8348015460021122254
:101468000DF106001E4603F05DFABDF830208DF838
:10147800052004F0010314F008028DF804300296E8
:10148800049519D1A10704D4B8F1000F12D19BB962
:10149800202201A9384601F09BFA0A4B98420ED047
:1014A8000B3398420CBF6FF00F006FF0040006B0CA
:1014B800BDE8F0814022ECE76FF08500F7E70020F7
:1014C800F5E700BF0000AD0B2DE9F0412F4F0025D7
:1014D80040F2FF16EBB2994202D80020BDE8F08135
:1014E80050F8253013F4804FC3F3C324C3F3080E18
:1014F80040D1B64517F804C04FEA136426D00B2C28
:1015080033D1C2F808E5BCF1000F08BF4FF0060C54
:101518005FEA5E1E50F8254003F01F0330D19B00A0
:10152800C4F3C03E03F1A043C4F34124A400D3F89C
:10153800008744EA4E04DFF858E008EA0E0E44EA51
:101548000E0444EA0C24C3F8004705E00B2C05D12F
:101558004FF0FF33C2F808350135BBE70C2C0CD12E
:101568004FF0FF33C2F80C35F6E70C2C05D1C2F862
:101578000CE5C8E76FF01500B0E76FF08500ADE740
:10158800002203F5E07352F82330FFDE344D0000EB
:10159800F0F8FCFF70B5012383400E4ABFF35B8F60
:1015A800DC4352E8001F01EA040542E80056002E19
:1015B800F7D1BFF35B8F4FF4803282400648C0F802
:1015C8000823BFF35F8FBFF36F8F0B4214BF012057
:1015D800002070BDF40200200010014070B40E49D4
:1015E800D1E90034D01AC31844F1000422F07F4630
:1015F800C1E90034A6F50013B3F5400F09D2074B33
:101608001B681A0A1B069C19054B42F10005C3E921
:10161800004570BC02F01AB9B0000020F8020020A2
:10162800B800002011B3BFF35B8F0123104A834039
:1016380052E800CF4CEA030C42E800C10029F7D178
:10164800BFF35B8F0B4A4FF480338340C2F80433F7
:10165800094BBFF35B8F1B68BFF35B8FC340DB078E
:1016680042BF064B4FF40032C3F80021704700BF59
:10167800F402002000100140F002002000E100E028
:101688000D4B1868010A0006BFF35F8F0B4BD3F8A8
:101698000435181841F10001B3F5801F0AD2084B30
:1016A800D3E90023904271EB030303D210F1807059
:1016B80041F10001704700BFF8020020001001400E
:1016C800B80000202DE9F04F85B016461F469DF85A
:1016D80040A00446FFF75EFF0190FFF7D1FFB0423C
:1016E80071EB070354D23E4B301A67EB0101984265
:1016F80071F100014FD23B4B03EB0413D3E90223F2
:101708009F4208BF96425ED037494FF4803804F1B3
:10171800500508FA04F8AD00C1F848832046ADB278
:1017280002F09DFE26F07F4B05F1804504F5A87375
:1017380005F58835DC464FF003090293029A2CF030
:101748007F4341F82230C1F84483D1F80435274A51
:101758006FF00200C01A604420F07F40904232D9F6
:10176800286868B1D1F804350393A3EB0B0020F087
:101778007F40B0F5000F26D9204602F070FE039B8B
:10178800BAF1000F07D109EB030C09F10109D5E7FC
:10179800BAF1000F09D06FF0150520460199FFF73F
:1017A80041FF284605B0BDE8F08F0123104ABFF37A
:1017B8005B8FA34052E8000F184342E8000100295C
:1017C800F8D1BFF35B8F07490E98230101EB041290
:1017D800C8500F9B5360C2E902670025DDE700BFD0
:1017E80001008000A000002000100140FDFF7F00E4
:1017F800F00200207FB51C4C1C4BC4F80833C4F819
:1018080048331B4B00254FF0FF304FF0FF31C4F831
:101818000855C3E902014FF48033C4F80433154B6B
:1018280002264FF400320121C4F804631120C3F8E2
:1018380080212A46FFF750F81120FFF731F80E4AA9
:101848000123A360236013600C4B0D4A0093CDE97C
:10185800015500232846FFF735FF3046FFF75EFBAA
:10186800284604B070BD00BF0010014003000F00FF
:10187800A000002000E100E0F4020020E5150000CF
:10188800FFFF7F002DE9F7432F4CD4F80433990765
:101898000BD5D4F8043143B12C4A0023C4F80431E1
:1018A800D4F80431136801331360D4F80433DA032D
:1018B80029D5BFF35B8F264B53E8002F22F0010197
:1018C80043E800100028F7D1BFF35B8FD30702D499
:1018D800D4F84031BBB10025C4F84051D4F84031A8
:1018E800FFF7CEFEEFF31182202383F31288BFF3B4
:1018F8006F8F184BD3E90267B042B94106D282F321
:101908001188BFF36F8F03B0BDE8F0834FF0FF3845
:101918004FF0FF39C3E90289D3E900101D604FF485
:101928008033C4F84833C4F84051D4F8403182F3C6
:101938001188BFF36F8F0029E5D0009032463B46EF
:1019480028468847DFE700BF00100140F802002062
:10195800F0020020A000002030B5431C124C85B0D6
:1019680005D08442A8BF0446012CB8BF0124FFF764
:1019780087FE0E4B0C4DD3E90013401AB0F5000F4B
:1019880010D22218AA4228BF2A4652184FF0000047
:1019980007490091CDE9010043F10003FFF792FEEA
:1019A80005B030BD2A46F0E7FFFF7F00B0000020F9
:1019B800E515000008B5FFF763FE024B1B68C01A67
:1019C80008BD00BFB0000020BFF34F8F0549064B8C
:1019D800CA6802F4E0621343CB60BFF34F8F00BFC5
:1019E800FDE700BF00ED00E00400FA054FF070438A
:1019F80093F8E02F062A09D1D3F8E83FC3F303137D
:101A0800033B042B02D8024AD05C70470020704781
:101A18004E4D00004FF08053D3E94C23062A05D1E0
:101A2800033B042B0AD8064AD05C70470A2A03D124
:101A3800022B03D8034AF7E70020704701207047BC
:101A48003F4D00003C4D0000024AD2F80034002B04
:101A5800FBD0704700E0014010B54FF08053D3F839
:101A680030315A1C04BF4FF0704393F8E03F062B07
:101A780008D14FF08053AC4AD3F82433C3F304237E
:101A8800C2F84035FFF7B2FF10B1A84BA84A5A6711
:101A980002F0F1FC48B14FF080534FF08042D3F888
:101AA8004432C3F34233C2F83C35FFF79FFF30B1ED
:101AB800A04AD2F8FC3023F08073C2F8FC3002F060
:101AC800DAFC40B14FF080430022C3F80C21C3F880
:101AD8001021C3F83825FFF789FF20B14FF0804364
:101AE8000322C3F8A025FFF781FF60B1924B0522BE
:101AF800C3F810260122C3F888260022C3F8182646
:101B08003F22C3F814264FF08053D3F83021541CD9
:101B180009BF4FF07043D3F8343193F8E02FD3F86E
:101B2800E83F08BFC3F30313062A4ED1033B042B37
:101B380003D8824AD35C002B49D04FF08052804BA7
:101B4800D2F80414C3F82015D2F80814C3F82415E1
:101B5800D2F80C14C3F82815D2F81014C3F82C15B1
:101B6800D2F81414C3F83015D2F81814C3F8341581
:101B7800D2F81C14C3F84015D2F82014C3F8441541
:101B8800D2F82414C3F84815D2F82814C3F84C1511
:101B9800D2F82C14C3F85015D2F83014C3F85415E1
:101BA800D2F83414C3F86015D2F83814C3F86415A1
:101BB800D2F83C14C3F86815D2F84014C3F86C1571
:101BC800D2F84424C3F8702501E00A2AB5D04FF0B2
:101BD8008053D3F83031581C04BF4FF0704393F84A
:101BE800E03F062B09D14FF080534FF08042D3F8E5
:101BF800583203F04F03C2F8E43E02F03CFC48B10F
:101C08004FF08043D3F80024D10744BF6FF001029E
:101C1800C3F800244FF08053D3F83021062A0ED1A0
:101C2800D3F83431033B042B02D8464AD35CD3B1F2
:101C3800454AD2F83C3743F48063C2F83C374FF04A
:101C48008053D3F830210A2A0DD1D3F83431022B2E
:101C580009D8DA0741BF4FF08042D2F8E43E43F09A
:101C68000F03C2F8E43EFFF7D5FE38B34FF010215A
:101C78004FF08043D1F80822C3F85825FFF7CAFE71
:101C8800E0B1D1F80031013303D0D1F80431013388
:101C980014D12E4801234FF01024C0F80435002138
:101CA800FFF7D2FEC4F80011FFF7CEFEC4F8041106
:101CB800FFF7CAFEC0F80415FFF7C6FE4FF0102163
:101CC800D1F80032002B03DBD1F80432002B17DAED
:101CD8001E4901234FF01020C1F804351524FFF7E1
:101CE800B3FEC0F80042FFF7AFFEC0F80442FFF7AA
:101CF800ABFE0023C1F80435FFF7A6FEFFF764FE2C
:101D0800D1F80C32DB070DD510480123C0F8043593
:101D18000024FFF799FEC1F80C42FFF795FEC0F8C2
:101D28000445E9E710BD00BF0030014000C007408E
:101D38000DF0ADBA00ED00E000500040494D000044
:101D480000C00040444D00000010004000E0014089
:101D580030B50468CCB1BFF35B8FB4FA84F3C3F138
:101D68001F03DBB201229A4024EA020250E8005F16
:101D7800A54204D140E8002CBCF1000FF6D1BFF316
:101D88005B8FE6D102480B7030BD0248FCE700BF0C
:101D98000000AD0B0200AD0B10B50368CB40DB07AC
:101DA80014D401238B400268BFF35B8F43EA02011E
:101DB80050E8004F944204D140E8001CBCF1000FE9
:101DC800F6D1BFF35B8FEED1014810BD0148FCE7A7
:101DD8000000AD0B0400AD0BF7B5044618B101289F
:101DE80023D003B0F0BD4FF080430222C3F808238C
:101DF8000122DA60C3F80401D3F80431064601234E
:101E08008DF8073042F210754FF08047D4B1012C9D
:101E1800E7D1D7F80C3403F48033AEBB83B3012089
:101E280002F03DFB013DF4D12AE04FF0804300224F
:101E3800C3F808035860C3F80021D3F800310DF146
:101E48000706DCE7D7F8183403F480333EB9002BD3
:101E5800C7D0012002F023FB013DF3D1C1E7D7F839
:101E6800182402F003023260002BBAD09DF8070054
:101E7800012803D102F013FB013DC7D1012CB0D1D9
:101E8800054B00225A71ACE7D7F80C2402F0010286
:101E98003270002BEAD1F3E7FC020020044B1A79D8
:101EA80022B9012218609A80024870470248704798
:101EB800FC0200200000AD0B0C00AD0B08B5074B71
:101EC8001B682BB10020FEF7F9FC08B9FEF7E8FC07
:101ED8004FF080430022C3F8182508BDFC020020FB
:101EE80010B510B1012843D010BD4FF08043D3F88E
:101EF8001814D3F81824C80321D502F00303012BC2
:101F080004D013B10020FFF767FF00234FF0804291
:101F18000220C2F8183508224FF4827303F1804377
:101F28000021196002F180421C6801241460154ADE
:101F380012680AB34FF08043C3F80403D4E7D3F818
:101F48001424D107E1D5D3F81C249207DAD40D4A1A
:101F580012681AB10222C3F80423C5E7D3F8042192
:101F6800002AFBD00022C3F80421D3F80431BBE7D0
:101F780000224FF48073D1E71A68002AFCD0196058
:101F88001B68B1E7FC02002010B54FF08043D3F87E
:101F980000216AB10022C3F80021D3F800210122F0
:101FA800C3F80823114B587910B95A711B68984720
:101FB8004FF08043D3F8042172B10022C3F8042102
:101FC800D3F80421D3F81824D3F81824920704D19D
:101FD8000122C3F818259A6010BD0222C3F808230D
:101FE800024BBDE810401B6801201847FC02002086
:101FF80070B500F108030C4C34F81330DA050546C7
:102008000E4607D5C3F3432304EBC30254F8333019
:1020180052689847A3682BB1E26831462846BDE864
:102028007040184770BD00BF2C00002010B4C0B22B
:10203800114A083032F81030D9051BD5C3F34321B3
:1020480023F4F85322F8103002F10E04002034F87B
:10205800023F13F4807F03D0C3F34323994209D08E
:1020680001302028F3D1002342F83130034810BC56
:10207800FFF792BE10BC70472C000020840000209F
:10208800F0B5054600200446012607468C420BD1D0
:10209800114BD3F87C2132B10022C3F87C21D3F84C
:1020A8007C3140F00040F0BDE3B29B0003F5807244
:1020B8009B0806FA03F31D420BD002F1804202F599
:1020C800C042D2F800C0BCF1000F02D017601268FD
:1020D80018430134DAE700BF00600040CBB2024683
:1020E800083308460C4931F81330990611D5990779
:1020F8000FD410685B0B01219940C0F808131268CF
:1021080002EB8303D3F8102522F00302C3F810254D
:102118007047002102F01ABA2C000020F7B5CDB2A2
:10212800174E0835074636F81530DB070C4624D518
:10213800FFF7D4FF36F815309A0606D55B0B3A68D8
:1021480003F5A273002142F823102046FFF76EFF23
:10215800002301A826F81530019402F0A4F9019B88
:1021680000EB8300074BD0F80027134043F002032D
:10217800C0F80037044803B0F0BD0448FBE700BFCF
:102188002C000020F0F8FCFF0000AD0B0400AD0BA4
:102198002DE9FF41136807460C461546FBB1CEB240
:1021A800DFF83C81083638F8162002F02202222A8D
:1021B80022D00022CDE900228DF80E208DF80F20C4
:1021C8000DF10E010DF10F02204602F076F938F8F4
:1021D800163023F0020343F0010328F816306B6829
:1021E8004BB393F800C05A683D4EE3B2083336F853
:1021F8001310880702D5B2B13A481FE021F0200138
:10220800C904C90C26F813106AB1BCF1030FF3D83E
:102218006A68386852681278BCF1000F11D102F56B
:10222800A27240F822C036F8132022F01C0242EABB
:102238008C0226F81320AB6843BB2B4804B0BDE8DA
:10224800F08100EB820041EA4231D0F810E52EF02F
:10225800030EC0F810E53F6807EB820741F0200144
:10226800D7F8100526F8131020F4473020F44070F2
:10227800C7F810052002D7F810E500F4F85040EA36
:102288000C4040EA0E00C7F81005CCE7D3E9006718
:102298002046FFF7CBFE002ECFD0114DD5E9002305
:1022A800964203D19F4201D1002209E00F480DF167
:1022B8000F01FFF74DFD0C4B9842BFD19DF80F2041
:1022C80045F83260E4B205EBC20308345F6035F8C4
:1022D800143043EA422343F4807325F81430ACE702
:1022E8002C0000200400AD0B0000AD0B8400002082
:1022F8002DE9FF4107460C461E4612B3CDB2DFF862
:10230800D080083538F81530980701D4990621D4BB
:1023180013F01C0F02D05378012B1BD001238DF82A
:102328000F300023CDE900230DF10F01931C204647
:10233800013202F0C2F838F8153043F0030328F8E8
:102348001530002E42D0E1B2214D083135F8112068
:10235800930703D41F4804B0BDE8F08196F800E065
:10236800D7F800C022F020020EF5A270D204002394
:10237800D20C4CF8203025F8112096F801C0BCF199
:10238800000F23D03868B67800EB8E004FEA0C4C6B
:10239800D0F8103523F4981323F4F853C0F8103507
:1023A800230203F4F8530CF4403C3605D0F81075BA
:1023B80043EA0C0306F4801642EA4E32334342F0F5
:1023C80020023B4325F81120C0F810350248C2E727
:1023D8002C0000200400AD0B0000AD0B014BC3E93D
:1023E800021270472C000020C9B20831044B33F8A0
:1023F8001130990643BF5B0B0248137002487047BF
:102408002C0000200000AD0B0400AD0B70B5164D7C
:1024180095F8604006462CBB2146402205F1100085
:1024280002F080FA30682E6D21468E420ED10023CC
:10243800C0F87C31D0F87C3140F30730FEF730FA31
:1024480001230A4885F86030AB6570BDCBB29B00AC
:1024580003F580727C2B08BF845001F1010108BF8D
:102468008358E2E70248F0E72C0000200000AD0B9B
:102478000C00AD0B034B93F86000003818BF012027
:10248800704700BF2C0000200148FFF785BC00BF43
:10249800800000200148FFF75BBC00BF80000020DF
:1024A80073B503680C46D3F804130029A4BF4FF092
:1024B8000041C3F80413E3B21D49083331F813305F
:1024C80099061AD513F0020617D15B0B9C00056814
:1024D80004F580716E50695801682144D1F810459F
:1024E80044F00104C1F810452AB10168012202FA3A
:1024F80003F3C1F8043302B070BDC3F38203042BA5
:1025080012D0052B12D001A8019401F0CCFF019A3A
:10251800D0F81035D34003F00103991C204602B0CF
:10252800BDE8704002F012B80321F7E70221F5E791
:102538002C0000202DE9F347544B554FD3F80403E2
:10254800396DC0B240F00040FFF79AFD051E18DA59
:102558000023F96D0093684602F007F84FF0010870
:1025680097F85C30DA075AD4396D4FF00040FFF71E
:1025780087FDF96D684601F0F8FF0028F0D125F0D5
:1025880000450124002D69D102B0BDE8F08794FA16
:10259800A4F4B4FA84F4E00804F1080304F0070290
:1025A80037F813901DF80030019408FA02F223EA74
:1025B80002030DF8003001A801F075FF019B03F537
:1025C800E0734FEA990150F82360C9F3820A4B0778
:1025D800D146C6F3014626D520465146FFF708FDE9
:1025E80001A8019401F05FFF019B03F5E073F6B2C7
:1025F80050F82330C3F301439E4207D100212046FF
:1026080001F0A4FF3146204601F0A0FF01A8019483
:1026180001F049FF019B08FA03F3C0F82035009C3C
:10262800002CB4D1A0E7022E0CD10321204601F0E2
:102638008DFF0AF00503012BE8D149462046FFF734
:10264800D7FCE3E70221204601F080FFBAF1030F2F
:10265800F3D0032EDAD1BAF1020FEDE795FAA5F31C
:10266800B3FA83F304FA03F29B0003F1804303F502
:10267800C04325EA0205D3F81005D3F81015C0F3B6
:102688000420C1F30141FFF7B3FC7BE70060004081
:102698002C000020CB7B10B433B9D1E90042036889
:1026A800C3F80845C3F80C2503688A68C3F82425CD
:1026B80003793C225343054AD3582BB1006810BC18
:1026C80040F30730FEF7ECB810BC70470403002055
:1026D80013B53B4B01930023C0F80431D0F8042113
:1026E800C0F82431D0F82421C0F81C31D0F81C21BE
:1026F800C0F80831D0F80821C0F800324B6381F8DF
:102708002F300123036291F82D209A4218BF83606D
:102718004B6B8A6A934204460ED24A6AD35CC0F86D
:102728001C350B6803B340F286238B608B68254801
:10273800C4F8043302B010BD91F82C3013B1012352
:10274800C361EEE70B6A13F0400F4FF0010316BFA9
:10275800C361436181F82D30E3E7204601F017FF9C
:1027680028B1019B013B0193019B002BF5DC91F8FB
:102778002F305BB91348019B002BDBDC0023C4F826
:10278800003505231048C4F80035D3E7D4F8C4341D
:10279800C4F8C4348BB10D4A0B4813F0010F18BFAD
:1027A800104613F0020F02F1010218BF104613F091
:1027B800040F074B18BF1846DDE70348DBE700BFE7
:1027C800A08601000000AD0B0100AD0B0000AE0BB0
:1027D8000200AE0B13B5334B01930023C0F804314C
:1027E800D0F80421C0F82431D0F82421C0F81C31D5
:1027F800D0F81C21C0F80831D0F808214B6381F8C3
:102808002F308B6A012B044617D10B6A5B0614D450
:102818000223C4F800320123236291F82D20022AF2
:1028280018BF23600B688BB140F286238B608B68DE
:102838001D48C4F8043302B010BD0123E9E720465F
:1028480001F0A5FE28B1019B013B0193019B002BE0
:10285800F5DC91F82F305BB91348019B002BEADCBB
:102868000023C4F8003505231048C4F80035E2E712
:10287800D4F8C434C4F8C4348BB10D4A0B4813F0EF
:10288800010F18BF104613F0020F02F1010218BF22
:10289800104613F0040F074B18BF1846DDE703482E
:1028A800DBE700BFA08601000000AD0B0100AD0B07
:1028B8000000AE0B0200AE0BF8B506792A4D4FF0BA
:1028C8003C0C0CFB06FC05EB0C0494F82E70002F56
:1028D8003DD1A76045F80C20636084F82D7084F81A
:1028E800317084F8307051B34B7B84F838308F7B6B
:1028F80084F839700FBB0A6802F01F03520928D107
:102908009B0003F1A043DFF864C0D3F8004740F20E
:102918000C6704EA0C043C43C3F800474C6804F015
:102928001F0364091AD19B0003F1A043D3F80027C1
:1029380002EA0C023A43C3F80027FFF7ABFE3C2338
:1029480003FB06550A48012385F82E30F8BD0948CF
:10295800FCE703F5E07357F82330FFDE03F5E07377
:1029680052F82330F9E700BF04030020F0F8FCFF19
:102978000000AD0B0C00AD0B036802790521C3F80C
:102988000015044B3C2101FB0233022283F82E2060
:10299800704700BF0403002003680B4A0179C3F89D
:1029A8000823D3F8002222F00302C3F800220022F1
:1029B800C3F80025054B3C2000FB0133012183F8B7
:1029C8002E1083F83020704786420400040300204C
:1029D8002DE9F047314F0479D0F800903C2303FBF0
:1029E80004730D4693F82D30012B944604D10B78CF
:1029F800012B06D12A4811E0022B02D10B78012BBA
:102A0800F8D13C26274BC9F8083306FB047696F81C
:102A180030302BB1B3682448C9F80433BDE8F087D7
:102A28008CF00403C3F3800386F83030C6F820C066
:102A3800A846B8E80F0006F10C0EAEE80F00D8F86B
:102A48000030CEF800306B68B362EB6873626B7865
:102A5800C9F888352B78C4EB041A012B07EB8A0ACE
:102A680017D09BB9CCF3401C3C2303FB047351469D
:102A7800484683F82CC0FFF72BFE3C235C433A19E9
:102A88003B59002BCAD182F83030C7E74FF0010C10
:102A9800EAE751464846FFF79DFEEEE704030020AB
:102AA8000500AD0B864204000B00AD0BF0B5324CAF
:102AB800324887B0214601F06AFD002859D194F8C0
:102AC8002F70FFB9227B931E012B1BD8606AA36964
:102AD800984217D1E36963626369A362236A27484E
:102AE80084F82D70C3F34013032A84F82C3004D1E2
:102AF80007B0BDE8F040FFF7EBBD07B0BDE8F04018
:102B0800FFF768BE1E4E0FCE01AD0FC533682B60B0
:102B180047B31A4AD2F8C434C2F8C43413F00201D5
:102B280006D001238DF80030002384F8303007E008
:102B380013F0040209D002238DF8003084F8301015
:102B4800D4E900316846984713E013F0010305D033
:102B580003238DF8003084F83020F1E704228DF843
:102B68000020E2E7236A8DF800705B0784F8307074
:102B7800E6D507B0F0BD00BF0403002000300040D8
:102B880010030020F7B5064601F0A3FD084601F042
:102B9800A0FD01A8019601F092FD019B2E4D00EBCE
:102BA80083000C46D0F80037019440F20D612B40A9
:102BB8000B43C0F8003701A801F081FD019B00EB31
:102BC80083000127D0F800372B400B43C0F80037AB
:102BD800042001F064FC092501A8019401F06FFDAF
:102BE800019AD0F81035D340DB0715D401A8019617
:102BF80001F065FD019B07FA03F3C0F80C350420CA
:102C080001F04DFC304601F064FD013D042001F067
:102C180046FC15F0FF05DFD101A8019401F04FFD36
:102C2800019A01239340C0F80C35042001F037FCC9
:102C3800204601F04EFD042001F031FC01A801946A
:102C480001F03DFD019AD0F810350448D34003F057
:102C58000103C01A03B0F0BDF0F8FCFF0100AD0B92
:102C680038B5EFF31185202383F31288BFF36F8FF4
:102C7800064B9C6801F052FD85F31188BFF36F8FF6
:102C88002046BDE83840FDF799BD00BF400300204D
:102C980038B5094B53F82040013053F82050A5426D
:102CA80000D838BD636823B1204601F03AFD0834E6
:102CB800F5E723689847FAE7844C000070B52B4B7A
:102CC8002B4C2C4D012286B003201A70FFF7E0FF31
:102CD80000F03CFE01F041FD0420FFF7D9FF264635
:102CE800AE4204F1300410D300F050FB204C224EC9
:102CF800AC4226D300F05EFBFDF7DAF91F4A137BDE
:102D080023F00103137306B070BD54F80C3C05930F
:102D180054F8103C049354F8143C039354F8183CAA
:102D2800029354F81C3C019354F8203C009354E956
:102D38000A2354E90C0100F02DF954F8303C5E6583
:102D4800CDE7D4E90A23B3F1FF3F08BFB2F1FF3F53
:102D580005D052EA0301206803D101F010FD303498
:102D6800C6E73146183000F0F7FCF8E77103002099
:102D78006C4B00006C4B00009348000040010020A1
:102D880008B50348034A0021121A01F0E2FC08BD05
:102D9800A00000207403002070B5002386B0012233
:102DA800CDE90423134E144D01930F22CDE90232CD
:102DB8001249142303FB005506EBC01604464FF4D2
:102DC800A07000FB04110E4B00954FF48072304642
:102DD80000F0E0F8737B0B4AEE6023F00403737392
:102DE8004FF4046304FB033313442C746B6006B084
:102DF80070BD00BFC000002040030020C00B0020B1
:102E08006547000080030020BFB50020FFF740FFA2
:102E18002B4B83F308882B4D2B4E6B692B4F43F4B8
:102E280000736B610024E02385F82230EC772C7660
:102E38006C76AC766B6A43F4E0236B6285F82340CA
:102E4800FDF78EFCFDF7CAFD4FF0FF33AB62EB6276
:102E5800FDF78AFEFDF7E6FD1D4BB36040F2011257
:102E68009A81C3E91844DC6601F044FC0120FFF7AD
:102E78000FFF0220174DFFF70BFF00F0CFFA164B9C
:102E880075610593012315490094CDE903434FF477
:102E980080623B46CDE90144284600F07BF86A7B16
:102EA800064622F0040228466A7301F0A4FC204674
:102EB800FFF772FF3A4631462846FDF76DFD00BF21
:102EC800C00B002000ED00E040030020C52C0000EE
:102ED800C001002040010020534D0000000D0020DB
:102EE80070B5EFF31186202383F31288BFF36F8F39
:102EF8000468A0421AD0CCB1D4E9003213605A60F9
:102F0800637B002523F002036373C4E90055A560C1
:102F180004F1180001F0DFFC2046A56701F06BFC06
:102F280031460848BDE8704000F0ECB9D0E90232FB
:102F38009A4218BF0133836086F31188BFF36F8FFD
:102F480070BD00BF7203002013B5EFF31181202478
:102F580084F31288BFF36F8F846844B1013C8460A6
:102F680081F31188BFF36F8F002002B010BD52EAC1
:102F7800030406D181F31188BFF36F8F6FF00F0040
:102F8800F3E7CDE900230246014800F08FF9ECE7AA
:102F9800720300202DE9F043073285B022F00702C2
:102FA8000E461F461099017300F158037F32C0E99D
:102FB80016330446002322F03F0204218360417344
:102FC8003F2A0F98A073C4E90633E37306F140095A
:102FD800A2F1400805D883F31188BFF36F8F084624
:102FE80002DFB51829462046FDF754FA07300E9B34
:102FF80020F00700A066C4E9189802930D9B01937E
:103008002D1A0C9B00932A463B4631462046FDF775
:1030180091FC00236365044B9B6803B1DB6EE36698
:10302800284605B0BDE8F0834003002038B590F984
:103038000D20437B002A014604DA03F07F03437323
:1030480001F09FFB0D4D2A46AB6852F8184F944289
:1030580000D004B9EC688B4207D05A7BD20604D161
:10306800DA897F2A01D9A2692AB1A34202D020466F
:1030780000F0B8FA23466B6138BD00BF400300205A
:1030880070B590F90D30427B002B36DBD10634D178
:103098008369002B31D11C4C62F07F0242732246B7
:1030A80052F8181F914218BF0B46E16923B9C0E9CD
:1030B80000210860E0610CE090F90E5093F90E6071
:1030C800B5421BD0AE4219DD5968C0E9003108602D
:1030D8005860A569954200D005B9E568A3685A7B90
:1030E800D20604D1DA897F2A01D9AA6952B1AB4242
:1030F80002D0284600F076FA656170BD9942D6D0B4
:103108001B68D3E76361F8E7400300202DE9F84323
:10311800002A427B0CBF4FF010094FF0080919EA4A
:10312800020F04460F4621D149EA0203D2092AD1E7
:103138004373B9F1080F2CD04FF00008344E3346D2
:1031480053F8185F9D4200D005B9F568B368AB42E3
:1031580002D0284600F046FAB9F1100F756144D143
:10316800BFF35F8F637B23F060036373284B9B6817
:10317800A34247D1EFF30583002B43D13846BDE87E
:10318800F843FDF731BB03F07F03437301F0F9FA0D
:10319800CFE7A36813B1204601F0FBFA04F1180049
:1031A80001F099FBA56D04F15806AE4211D04FF01D
:1031B800000875B1284601F0ECFA05F1180001F095
:1031C8008AFBC5F878802846FFF75AFFA56DAE42FE
:1031D800EFD10F4B9B689C42AED1EFF30588B8F155
:1031E800000818BF4FF00108A8E7B8F1000FB7D0E2
:1031F800084BB36040F201129A810022C3E91822F9
:10320800DA66ADE787F31188BFF36F8FBDE8F883FF
:1032180040030020C001002070B590F90D20437BC9
:10322800002A014604DA03F07F03437301F0A9FA88
:103238004B7B1D4C63F07F0322464B7352F8183FBB
:10324800E069934208BF002323B9C1E90020016067
:10325800E1610CE091F90E5093F90E60B5421ED071
:10326800AE421CDD5868C1E9003001605960A569AB
:10327800A368954200D005B9E5688B4207D05A7B10
:10328800D20604D1DA897F2A01D9AA692AB1AB42C8
:1032980002D0284600F0A6F92B46636170BD98421B
:1032A800D3D01B68D0E700BF40030020F8B5124B0D
:1032B8000C461146114A98681060DDE90676EFF36E
:1032C8001182202282F31288BFF36F8F9D682846EF
:1032D80001F069FAB6F1FF3F08BFB7F1FF3F06D02A
:1032E80007493A46334605F1180000F035FA2046FA
:1032F800BDE8F840FDF778BA4003002060030020DD
:103308009348000049B9EFF3058030B9054B5A6975
:103318009B689A4201D0FDF767BA81F31188BFF321
:103328006F8F70474003002010B5EFF311842022FF
:1033380082F31288BFF36F8F427B510704D484F362
:103348001188BFF36F8F10BD22F004024273FFF79C
:1033580097FE21460248BDE81040FFF7D3BF00BFE3
:1033680072030020034648B9EFF3058232B9064AD2
:1033780051699268914201D0FDF736BA83F31188FA
:10338800BFF36F8F704700BF40030020EFF3118138
:10339800202383F31288BFF36F8F054B9A68D37B82
:1033A800013BD37381F31188BFF36F8F704700BF60
:1033B8004003002070B5EFF31186202383F31288B1
:1033C800BFF36F8F144DAB68DA7B0132DA732A468C
:1033D80052F8184F944200D004B9EC685A7BD206D0
:1033E80004D1DA897F2A01D9A2692AB1A34202D07D
:1033F800204600F0F7F823466B6186F31188BFF387
:103408006F8FEFF31180202383F31288BFF36F8F40
:10341800BDE87040FFF7A6BF40030020024B03F150
:103428001802C3E90622704740030020F8B5EFF3FD
:103438001186202383F31288BFF36F8F1D4CA06879
:10344800437B03F07F03437301F09BF9A3685A7B26
:10345800214662F07F025A7351F8182FE0698A42B8
:1034680008BF002222B9C3E900100360E3610CE041
:1034780093F90E5092F90E70BD4217D0AF4215DD88
:103488005068C3E9002003605360A5698D4200D0ED
:1034980005B9E568A3689D4202D0284600F0A2F865
:1034A80065613046BDE8F840FDF79EB98242DAD042
:1034B8001268D7E74003002050EA01032DE9F041E4
:1034C80005460E4603D1FFF7B1FF00202BE0831C11
:1034D80071F1FF3329DB01F013FA2C18EFF311888F
:1034E800202383F31288BFF36F8F124F124BB868F3
:1034F8001860FFF79BFDB86810492A463346183014
:1035080000F02AF9BA68537B43F01003537340461E
:10351800FDF76AF901F0F4F9201A63EB03030128B7
:1035280073F10003D1DBBDE8F0816FF00104241AC8
:10353800D4E700BF40030020600300209348000048
:10354800B1F1FF3F08BFB0F1FF3F08B506D10A4B04
:10355800986801F05FF94FF0FF3008BDFFF7ACFF46
:103568004FF47A7147F6FF730022C0FB0132D80B83
:1035780040EA4240F1E700BF40030020014B986851
:10358800704700BF40030020044BC01A044BC01012
:103598005843044B01221A54704700BF40020020D0
:1035A800ABAAAAAA72030020C3897F2B12D80A4BA0
:1035B8001B6863B1094B90F90E201B689A4209DB1E
:1035C800437BDB0606D1064BC31A18BF012303F061
:1035D800010070470023FAE7680300206403002015
:1035E800C000002070B50E4B0E4C1E7C06EB460347
:1035F80004EBC3040546204601F06DF90A4B00228E
:1036080028469A55FFF7D0FF48B1084B08491A6871
:10361800013A2046D317BDE8704000F09DB870BD50
:1036280040030020400200207203002068030020AD
:103638009135000038B5EFF31185202383F3128804
:10364800BFF36F8F104B114A9C681068A04206D1D7
:10365800FFF7C8FF85F31188BFF36F8F38BD0021CE
:103668001B7C11600A4AD35C002BF3D02046FFF77D
:103678009BFF0028EED0637BDB0602D12046FFF7D4
:10368800CBFD2046E4E700BF400300206003002094
:10369800720300200748084A084908B5121A01F0C1
:1036A8005AF80748074A0849BDE80840121A01F0C5
:1036B80052B800BF000000209E000020A44D00006A
:1036C8000000002000000020A44D0000034B1B68F0
:1036D8000BB9FEF76FB90020704700BF6C030020DC
:1036E80030B570B10B4B5B6898420AD0036843B1A0
:1036F800D3E90421D0E90445121941EB0501C3E9D6
:103708000421D0E9003213605A600023C0E9003375
:1037180030BD00BF9000002010B50E4B1C689C42C5
:1037280004D1FFF7D3FF6FF0004010BDFFF7CEFFC5
:10373800002CF8D0D4E904321B1A62EBE072B3F122
:10374800004F72F10001EEDA002AACBF18460020E3
:10375800EBE700BF90000020B3F1FF3F08BFB2F1D4
:10376800FF3FF8B504461D4616465ED08160EFF36C
:103778001187202383F31288BFF36F8F013275F10D
:10378800FF3324DA2E49D1E900206FF001039B1A98
:103798004FF0FF3262EB00009E1B60EB0500012E2C
:1037A80070F1000301DA01260020C4E90460254E07
:1037B800D6F800C07568B44508BF4FF0000CBCF1DE
:1037C800000F0DD1C4E900652C6074601CE0FFF7A0
:1037D8007DFF013645F10005361845EBE070E4E75A
:1037E800DCE90420D4E90431934271EB000E1DDAC0
:1037F800D21ADCF8043060EB0100CCE90420C4E9FB
:1038080000C31C60CCF804403368B34209D09C4222
:1038180007D10D4B1C6824B9FFF77EFF2146FEF740
:103828009BF887F31188BFF36F8FF8BD9B1A61EB84
:103838000001AC45C4E90431C4D0DCF800C0BEE7DF
:1038480058020020900000206C0300202DE9F84F5A
:10385800EFF3118C202383F31288BFF36F8FDFF807
:10386800B0A0DFF8B0902C4FC9F80000DAF80000DB
:103878000024504508BF00200025D7E90021D9F8C9
:103888000030E04678B3D0E9046C4FEAE37EB342F7
:103898007EEB0C0B05DAF61A6CEB0E04C0E9046437
:1038A80021E0B21841EBE671C0E90445C7E90021FF
:1038B800FFF716FF88F31188BFF36F8F8368984767
:1038C800EFF31188202383F31288BFF36F8FD9F8A1
:1038D8000030DAF800009B1B5045C446C9F8003098
:1038E800CBD1D7E900219A1841EBE3730024C7E94B
:1038F8000023C9F80040FFF70FFF2146FEF72CF818
:1039080088F31188BFF36F8FBDE8F84FFFF792BEB9
:10391800900000206C0300205802002010B5EFF33F
:103928001184202383F31288BFF36F8FFFF7CEFE35
:10393800054A0346D2E90001181841EBE37184F304
:103948001188BFF36F8F10BD58020020014800F0A6
:1039580035BB00BF584D00002DE9F04F8DB04368CE
:103968000293837815469A07804640F10D8100241A
:103978000E78002E00F00A81252E0BD04B1C0393E5
:103988000134029B4146304698470028C0F2F68031
:103998000399EDE74E788B1C252E0393F0D0002772
:1039A800B946BB46BBF11F0F38D8A6F12003102B30
:1039B8000AD8DFE803F02A090930090909210909A9
:1039C8000928092D09091F00A6F13003092B33D94D
:1039D8002A2E37D11BF0400F55F8043B40F0828067
:1039E800002BA7BF4BF0200B9946C3F100094BF001
:1039F800280B01E04BF0010B039B13F8016B0393B9
:103A0800002ECFD130E04BF0020B4BF0040BF3E764
:103A18004BF0080BF0E74BF0100BEDE7BBF17F0F15
:103A280019D8A6F13003092BD2D81BF0400F03D0C8
:103A38000A2101FB0737DFE70A2101FB09394BF0AF
:103A4800200BD9E72E2E06D11BF0400F40F09E80A8
:103A58004BF0400BD0E76C2E31D02BD8682E36D0E7
:103A68006A2E3CD04C2E3AD0002F46F02003B8BF27
:103A78002BF04002A3F16501BCBF1FFA82FB0027AF
:103A8800022901D9612B2FD1073525F00705DFF869
:103A9800ACA2083507271BF0080F66D00AEB070B06
:103AA80056465E4563D1A4EB0A0A06EB0A02A9EB67
:103AB80007096FE1742E9FD07A2E9DD0D4E71BF0B2
:103AC800800F18BF4BF4007B4BF0800B94E71BF47E
:103AD800807F18BF4BF4007B4BF4807B8CE74BF462
:103AE800207B89E71F4687E7A6F16301122900F2C8
:103AF800F080DFE811F013004F00EE00EE00EE005A
:103B0800EE004F00EE00EE00EE00EE00EE00FE00CC
:103B1800E900EE00EE001B00EE00AF0055F8043B94
:103B28008DF8183001270DF1180AB4E755F804ABE1
:103B3800834BBAF1000F08BF9A461BF0400F14BF21
:103B480039464FF0FF31504600F0F4FE0746A2E731
:103B5800029B41462020984700280FDB013EB742D0
:103B6800F6D34C44A41BB14698E74E46F7E716F83F
:103B7800010B029B41469847002892DA98F80230D8
:103B880043F0040388F802304FF0FF3420460DB0AC
:103B9800BDE8F08F1BF0800F34D01BF4007F2CD0D1
:103BA800073525F00705AA4669685AF8080B2BF06F
:103BB80010050029ADB237DA404261EB410145F406
:103BC80080650DF1180B0A235A4600F0BFFEA0EBE2
:103BD8000B0301936B0662D5019B25F001019F42FF
:103BE80089B240F3A180002E00F0998015F01002F0
:103BF80040F09C80BB460D4623E0AA465AF8040BC9
:103C0800C117D4E7AA461BF4807F5AF8041B01D1D8
:103C18000846F5E71BF4007F15BF48B208B241F328
:103C2800C01141F3C031C2E750EA0103C9D11BF00A
:103C3800400FC6D0002FC4D12BF0110295B2BB465D
:103C4800019740F2064115EA01021CBF0BF1010B76
:103C580000222CE02BF010021FFA82FB0A231BF033
:103C6800800C49D01BF400711DBF073525F00705EE
:103C7800AA46AA461ABF5AF8080B69685AF8040BEC
:103C880050EA010545D12BF016051BF0400FADB2E7
:103C980042D0002F40D12BF0170295B2019715F0B2
:103CA800100248D0019B002E42D103F1010B2907D5
:103CB8005AD4EB0706D5D9456FDD0199A9EB0B035B
:103CC8005F18CB465B4649E04BF0100B1023782673
:103CD800C5E7782B04D1C6F1780343F01003BEE79B
:103CE800029B4146252098470028FFF647AF02343B
:103CF80047E608230026B2E7AA461BF480715AF863
:103D0800040BBDD01BF400711ABFC0B2614680B26B
:103D1800B6E72BF0060295B20DF1180B54E725F023
:103D28001105ADB2BB468CE70D46B8E73B460D46DC
:103D380003F1020BBBE7DDF804B082E79B4D0000FE
:103D4800944D0000CDE904324146029B202098475B
:103D58000028FFF613AF049B059A01339945F1DC5F
:103D6800A4EB0B01CC189B460AB3029B41463020BA
:103D780098470028FFF602AF8EB901342744019B0B
:103D8800391B994224DC1D465DBB019AA9EB0B093E
:103D9800224455461446914435E0019F92E7023487
:103DA80041463046029B98470028E7DAE6E640F2AB
:103DB80006410D42E2D015F0020F14BF2B2020203F
:103DC80015F4806F04F10104414618BF2D20E9E77E
:103DD800029B414630209847002804F10104CEDABE
:103DE800CCE606AB013D4146585D029B984700284A
:103DF800CADAC3E6029B414620209847002804F10E
:103E08000104FFF6BBAEA9EB0403002BF2DCBFE50F
:103E18007047F0B4034600681979DB88066987683B
:103E28003468DA0754BF43F4B01383F4D013012580
:103E38008D4023F48012DB074CBF2C43AC43346025
:103E48003B68F0BC184703460A4600681979012305
:103E580003FA01F103691B68194218BF82F00102D5
:103E680012B18368DB68184783681B69FBE710B5E4
:103E780088B003468DF807100DF107010291012162
:103E8800CDE905210024072200689B8803918DF85D
:103E980010408DF81C209DF81C20816842F0020219
:103EA8008DF81C208C68022202A9A04708B010BD1A
:103EB8001FB503468DF80120022200689B888DF803
:103EC8000010CDF804D002928DF80C209DF80C203B
:103ED800816842F002028DF80C208C68012201A949
:103EE800A04704B010BD00EBC100408840087047EF
:103EF800F8B50346FFF7F7FFB0FA80F0C0F11F00EE
:103F080003EB800CCA00DCF81060171D0C46063263
:103F18008DB256B9012101FA00F0D9680143D96080
:103F2800CCF81040DD539D52F8BDF1000431585AC9
:103F3800D85303EBC0009E52C5805D52F4E7043AA3
:103F48002DE9F041CC1D114424F0070421F00701AC
:103F58000E1BF708B7FA87F2C2F12405AD004FF03F
:103F680000080735C2F12002ED0804604146A76049
:103F7800C4F80C80920004F1100000F0D3FC6B0030
:103F880043F00103638004EBC5027B1B5900A4F8CE
:103F980000805180A21924F83550A2F80280A3535A
:103FA80004EBC70329465A8842F001025A8020468A
:103FB800BDE8F041FFF79CBF002070470FB407B57C
:103FC80004A951F8040B0191FCF71AF903B05DF844
:103FD80004EB04B07047038B13F0070305D10368A3
:103FE800002B0CBF002003207047022B05D1408B0B
:103FF800B0FA80F0400980007047012B05D10368B2
:10400800002B0CBF0020052070470020704710B51A
:104018000C4600B111B96FF0150010BD081D00F075
:1040280093F80028F9D1A368032BF6D9F3E72DE913
:10403800F0410D4607461946281D90461E4600F0D9
:1040480094F8044638B13346424629463846A446D1
:10405800BDE8F0416047BDE8F08110B4EFF311828C
:10406800202484F31288BFF36F8F416110BC0121B3
:10407800FCF7F8B838B50C46054658B151B10B688D
:1040880043B14B6833B11C22002100F04BFC2C617A
:10409800002038BD6FF01500FBE770B505460E46E9
:1040A800FFF7B5FF041E14DBEFF31182202383F31F
:1040B8001288BFF36F8F6B8B2C8B4FF6FF718B427F
:1040C80004F0070407D182F31188BFF36F8F6FF0F4
:1040D8000A04204670BD022C0CD101336B8382F395
:1040E8001188BFF36F8F0023224631462846FFF719
:1040F8009EFFEEE7062C14D8DFE804F00413131330
:10410800041A0400002333606B683BB9C5E90066F4
:10411800ACB902212846FCF7A5F8DAE71E606E6004
:10412800F6E782F31188BFF36F8F6FF00404D0E7CE
:1041380082F31188BFF36F8F6FF08504C9E782F3AC
:104148001188BFF36F8FC4E7034658B1426802F085
:104158000302012A03D0032A04D1026812B1002005
:10416800986070476FF0150070474268816002F0F0
:104178000302032A4FF0000203460CBF00681046F2
:104188005A6070477047012801D1EFF30583FEF7A5
:1041980067BD01460068FFF7F6BF08B5FCF776F97A
:1041A800BDE80840FCF796B900210120FFF7EBBFF6
:1041B80061B662B680F31188BFF36F8F704772B62D
:1041C800002383F31188BFF36F8FBFF34F8F30BF86
:1041D80062B6BFF36F8F704772B6002383F31188FE
:1041E800BFF36F8FBFF34F8F20BF80F31188BFF3EA
:1041F8006F8F62B67047202809D9B0F1004F08D8F0
:104208000138B0FA80F0C0F11F0040007047082064
:1042180070473E2070474FF080430122C3F878254D
:10422800002070470369C9B20C2201FB0233186CE5
:1042380000F00700704770B5C9B20369EFF3118544
:10424800202484F31288BFF36F8F0C2606FB0134F9
:10425800246C14F0C00408D0A24206D085F311885B
:10426800BFF36F8F4FF0FF3070BD06FB01330122A3
:104278001A6485F31188BFF36F8F436803EBC1039A
:104288005B6898470020EFE78022FFF7D4BFF8B5B6
:10429800069F0469C9B2EFF31186202585F31288B9
:1042A800BFF36F8F0C2505FB0144256C05F0070C47
:1042B800BCF1010F0CD1276486F31188BFF36F8F0F
:1042C800C4E90E23436853F8313098470020F8BDFD
:1042D80005F0C005AF4286F31188BFF36F8F0CBF9E
:1042E8006FF077004FF0FF30F1E713B580240094AA
:1042F800FFF7CDFF02B010BD10B40069CBB21C248B
:1043080003FB0400002110BC10470020FDF7E8BDA6
:10431800002000F0C6B81046FEF7E2BD43685B68AF
:10432800D3F810350B600020704743685B6802EAD9
:10433800010021EA0201C3F80805C3F80C150020A2
:10434800704743685B680020C3F8081570474368E6
:104358005B680020C3F80C15704743685A68D2F8A8
:10436800043521EA03000B40C2F80805C2F80C35F1
:104378000020704710B503695868F8B1884219D110
:104388009C6808685860A14200D1986000200860C5
:104398002AB15A680A609A68596002B9996000207F
:1043A80010E0814206D10868206098688142EDD10A
:1043B8009C60EBE7044600680028F2D1002AE8D1A7
:1043C8006FF0150010BD37B5044600220121032007
:1043D800FCF782FA6368DD6901AA0021284600F02B
:1043E8002BF800280DDB019B2A6819791868FDF75E
:1043F8006BF8002805DB204603B0BDE83040FDF728
:1044080001B803B030BDCA074368006905D4C1F3D9
:104418004202012A04D0022A0AD06FF01500704720
:104428001B684FF0CC72C3F8242501600020704748
:104438001B684FF0CD62F6E730B543681360057A24
:10444800446804EBC504A34202D36FF0010030BDF9
:104458005C798C4201D00833F0E70020F7E700F1DF
:1044680050039B009BB203F1804303F5883300227D
:104478001A601B6870474FF08053D3F83001421C14
:1044880004BF4FF0704393F8E00F062804D0A0F162
:104498000A0358425841704701207047004700F00E
:1044A80025B9FDF799BC036803F01F025B09026098
:1044B8000CBF4FF0A04000207047F7B5019001A84D
:1044C800DDE9084716461D46FFF7EDFF019BB6F1EB
:1044D800000C18BF4FF0010C00EB83000B1E18BF37
:1044E8000123002D43EA4C0314BF4FF00C0C4FF08E
:1044F800000C002C43EA0C0314BF4FF4E06C4FF09F
:10450800000C002F43EA0C03D0F8002714BF4FF427
:10451800403C4FF0000C43EA0C0322EA030301B1CC
:1045280009780EB13678760019430DB12D78AD00B3
:1045380031430CB12478240229430FB13F783F045A
:104548000C433C43C0F8004703B0F0BD1FB50DF164
:104558000F03019300238DF80F1000931A46194694
:10456800FFF7ABFF05B05DF804FB024611F0010050
:1045780007D04FF0A041D1F820351360C1F820359D
:1045880003B900207047FDF7C9BDFDF7A7BD30B5D9
:10459800D0F804312BB10023C0F80431D0F804312D
:1045A800012391F82F2022B30022C0F82421D0F84B
:1045B8002441C0F81C21D0F81C41C0F80821D0F8CB
:1045C8000821002B79D0002281F82D2091F82F2086
:1045D800002A37D14D6B8C6AA5421FBF0523C0F84E
:1045E8000025C0F80035134683F0010381F82F3009
:1045F80028E0D0F8244114B1C0F824210EE0D0F806
:104608001C216AB3C0F81C41D0F81C214A6B013246
:104618004A63D0F8245145B1C0F82441D0F8242188
:104628000122426181F82F20CBE78C6AA24204D292
:104638004C6AA25CC0F81C25C3E791F82C201AB17B
:104648000123C361002030BD0A6A12F0400F4FF009
:10465800010203D0C26181F82D20F3E74261B0E77F
:10466800D0F80841002CACD0C0F80821D0F8084197
:10467800D0F82441002CBFD14A6B8C6AA242A0D248
:104688004C6AD0F81855A5544A6B8C6A0132651EDD
:10469800AA424A6308D10A6A540602D40222C0F820
:1046A8000022012202628CE7A242FAD10A6A52066B
:1046B80087D5022381F82D30C4E70120C3E70368BA
:1046C80003F01F025B0902600CBF4FF0A0400020FE
:1046D800704707B5019001A8FFF7F1FF019A012380
:1046E8009340C0F8083503B05DF804FB08B1FCF747
:1046F80001BB7047704740B1C368587810F001009B
:104708001EBF1878B0FA80F040097047EFF31183A4
:10471800202383F31288BFF36F8FFEE708B5FFF7F6
:10472800F5FF10B5D0E9003433B90020E2685378BA
:1047380043F00103537010BD204698470028F4D079
:104748000028B8BF4042E368FF28A8BFFF201870C0
:10475800ECE700F0E7B800F0D7B8704708B52024B8
:10476800EFF3118384F31288BFF36F8FFFF727FDF0
:10477800F6E7EFF30580003818BF01207047FEF711
:10478800D3BDD0E9003213605A600023C0E900337A
:10479800704708B5FFF7F5FF437B23F00203437327
:1047A8000023836008BD38B504460D46FEF73EFC7D
:1047B800637B43F002036373E5B1A5602B689D42F8
:1047C80009D16B68C4E900531C606C6012E06A6828
:1047D8009A42F6D01B68002BF3D094F90E2093F977
:1047E8000E108A42F3D09142F1DD5A68C4E90032D2
:1047F80014605C6038BD10B5EFF31184202383F397
:104808001288BFF36F8FFEF73BFC84F31188BFF368
:104818006F8F10BD10B50446183000F05CF8EFF348
:104828001181202383F31288BFF36F8F627B12F00C
:10483800100204D081F31188BFF36F8F10BD20469A
:10484800BDE81040FEF762BC38B50446EFF31185A9
:10485800202383F31288BFF36F8F437B13F0280F55
:104868000BD183680BB1FFF794FF637B51B903F059
:10487800FB0363732046FEF703FC85F31188BFF33F
:104888006F8F38BD03F0EB03F3E701211838FFF70A
:10489800DBBFEFF31181202282F31288BFF36F8F01
:1048A800027BD2070CD581F31188BFF36F8F0023E9
:1048B80083F31188BFF36F8F0423184602DF704714
:1048C800437B1B0704D581F31188BFF36F8F7047B3
:1048D8000122FEF71BBC10B5EFF31184202282F3EE
:1048E8001288BFF36F8F03683BB1FEF7F9FE002013
:1048F80084F31188BFF36F8F10BD6FF01500F7E7D1
:1049080008B5FFF70BF808BD0A44914200F1FF33E0
:1049180000D1704710B511F8014B03F8014F9142CF
:10492800F9D110BD02440346934200D1704703F801
:10493800011BF9E710B5024601448A42134603D029
:104948001C780132002CF8D1181A10BDF0B5C3F14B
:1049580037070446FFB203F01F031046082BE6B2E0
:1049680033D0102B3ED06508A40844EA817445EA88
:10497800C1752D194FEA910242EB5102290941EA0A
:1049880002716D1842EB1212290A41EA02616D1890
:1049980042EB1222290C41EA02416D1842EB124205
:1049A800AD1842F10002EC0844EA4274D10804EB65
:1049B8008402A6EB4205EDB2092D0CD90134A5F10C
:1049C8000A0541F10001EDB212E0E40844EA41743D
:1049D80006F00705C908303554EA010200F8015B02
:1049E800BCD1F0BD240944EA017406F00F05090999
:1049F800092D84BFED19EDB2EDE70000014800680C
:084A080070470000600200206D
:104A10001F42000000000000B90D0000404A0000E5
:104A200021100000544A0000FD17000000000000A3
:104A3000D90C000000000000CF430000684A0000CD
:104A40000A4D0000C84B0000D84B00009800002021
:104A500090020020194D0000F44B00000C4C0000A7
:104A60009A000020E4020020274D0000304C000096
:0C4A70006C4C00009C00002004000020A2
:104A7C00911F0000A544000000000000B14100009F
:104A8C0000000000B1410000B52A0000A544000060
:104A9C0000000000B141000000000000B141000026
:104AAC003D250000A544000000000000B1410000BD
:104ABC0000000000B141000000000000B141000006
:104ACC0000000000B141000000000000B1410000F6
:104ADC0000000000B141000000000000B1410000E6
:104AEC0000000000B141000000000000B1410000D6
:104AFC0000000000B1410000000000008D18000013
:104B0C0000000000B141000000000000B1410000B5
:104B1C0000000000B141000000000000B1410000A5
:104B2C0000000000B141000000000000B141000095
:104B3C0000000000B141000000000000B141000085
:104B4C0000000000B141000000000000B141000075
:104B5C0000000000B141000000000000B141000065
:044B6C00FFFFFFFF49
:104B70000338FDD870470000544A000019000000B7
:104B8000544A000010000000684A0000680000005D
:104B9000000000200000000000000B0602000000E2
:104BA000A44B000000000000FB4C000022000207A4
:104BB00000000020034D00001C000B11410D0000FF
:104BC000110D000000000000910E0000850D000096
:104BD0001343000019430000110E00009142000031
:104BE000F3420000000000002D4200000000000021
:104BF00000000000FFFFFFFF000000500000000069
:104C0000000000000060004000000000A51000004F
:104C100025430000334300004B430000574300008E
:104C200063430000211200007D43000000000000EB
:104C30000030004000000000000000000000000004
:104C4000000068060000010115130000504C000030
:104C5000003000405C4C000001000000644C00008B
:104C6000020000000506000B0406000C0F440000C3
:104C7000000000004D1300000000000000000000D4
:104C800031140000104A0000104A0000284A0000B9
:104C9000304A0000404A0000404A000049434D3479
:104CA0003236373020646576696365206973206E1B
:104CB0006F742072656164790A004D434C4B204942
:104CC00053204E4F542052454144593A20307825C4
:104CD0003032780A00556E657870656374656420BB
:104CE00057484F5F414D5F4920726573706F6E7317
:104CF000653A203078253032780A00464C415348D6
:104D00005F30005352414D5F3000636C6F636B4006
:104D10003430303030303030006770696F403530BB
:104D2000303030303030006932634034303030332E
:104D300030303000000102030405060700000100C6
:104D4000000000010000000101000001010101005C
:104D50000000006D61696E002A2A2A20426F6F747C
:104D6000696E67205A6570687972204F53206275AA
:104D7000696C642076342E302E302D7263332D34DE
:104D80002D67363535313165616366396431202AE6
:104D90002A2A0A00286E756C6C29002A666C6F61DD
:044DA000742A000071
:104DA400C13F0000000000000800002008000020AF
:104DB400010000000100000018000020180000207D
:104DC40000000000010000000000000000000000DE
:104DD40000000000000000000000000000000000CF
:104DE40000000000000000000000000000000000BF
:104DF40000000000000000000000000000000000AF
:104E0400000000000000000000000000000000009E
:104E14000000000000000000000000000800000086
:104E2400FF0000000000000001000000000000007E
:084E3400900000209000002016
:064E3C0000000000000070
:044E420015E015E082
:04000003000007955D
:00000001FF
